{
  "contractName": "SampleCrowdsale",
  "abi": [
    {
      "constant": true,
      "inputs": [],
      "name": "hasClosed",
      "outputs": [
        {
          "name": "",
          "type": "bool"
        }
      ],
      "payable": false,
      "stateMutability": "view",
      "type": "function"
    },
    {
      "constant": true,
      "inputs": [],
      "name": "rate",
      "outputs": [
        {
          "name": "",
          "type": "uint256"
        }
      ],
      "payable": false,
      "stateMutability": "view",
      "type": "function"
    },
    {
      "constant": true,
      "inputs": [],
      "name": "cap",
      "outputs": [
        {
          "name": "",
          "type": "uint256"
        }
      ],
      "payable": false,
      "stateMutability": "view",
      "type": "function"
    },
    {
      "constant": true,
      "inputs": [],
      "name": "goal",
      "outputs": [
        {
          "name": "",
          "type": "uint256"
        }
      ],
      "payable": false,
      "stateMutability": "view",
      "type": "function"
    },
    {
      "constant": true,
      "inputs": [],
      "name": "weiRaised",
      "outputs": [
        {
          "name": "",
          "type": "uint256"
        }
      ],
      "payable": false,
      "stateMutability": "view",
      "type": "function"
    },
    {
      "constant": true,
      "inputs": [],
      "name": "isOpen",
      "outputs": [
        {
          "name": "",
          "type": "bool"
        }
      ],
      "payable": false,
      "stateMutability": "view",
      "type": "function"
    },
    {
      "constant": true,
      "inputs": [],
      "name": "closingTime",
      "outputs": [
        {
          "name": "",
          "type": "uint256"
        }
      ],
      "payable": false,
      "stateMutability": "view",
      "type": "function"
    },
    {
      "constant": false,
      "inputs": [],
      "name": "finalize",
      "outputs": [],
      "payable": false,
      "stateMutability": "nonpayable",
      "type": "function"
    },
    {
      "constant": true,
      "inputs": [],
      "name": "capReached",
      "outputs": [
        {
          "name": "",
          "type": "bool"
        }
      ],
      "payable": false,
      "stateMutability": "view",
      "type": "function"
    },
    {
      "constant": true,
      "inputs": [],
      "name": "wallet",
      "outputs": [
        {
          "name": "",
          "type": "address"
        }
      ],
      "payable": false,
      "stateMutability": "view",
      "type": "function"
    },
    {
      "constant": true,
      "inputs": [],
      "name": "goalReached",
      "outputs": [
        {
          "name": "",
          "type": "bool"
        }
      ],
      "payable": false,
      "stateMutability": "view",
      "type": "function"
    },
    {
      "constant": true,
      "inputs": [],
      "name": "finalized",
      "outputs": [
        {
          "name": "",
          "type": "bool"
        }
      ],
      "payable": false,
      "stateMutability": "view",
      "type": "function"
    },
    {
      "constant": true,
      "inputs": [],
      "name": "openingTime",
      "outputs": [
        {
          "name": "",
          "type": "uint256"
        }
      ],
      "payable": false,
      "stateMutability": "view",
      "type": "function"
    },
    {
      "constant": false,
      "inputs": [
        {
          "name": "beneficiary",
          "type": "address"
        }
      ],
      "name": "claimRefund",
      "outputs": [],
      "payable": false,
      "stateMutability": "nonpayable",
      "type": "function"
    },
    {
      "constant": false,
      "inputs": [
        {
          "name": "beneficiary",
          "type": "address"
        }
      ],
      "name": "buyTokens",
      "outputs": [],
      "payable": true,
      "stateMutability": "payable",
      "type": "function"
    },
    {
      "constant": true,
      "inputs": [],
      "name": "token",
      "outputs": [
        {
          "name": "",
          "type": "address"
        }
      ],
      "payable": false,
      "stateMutability": "view",
      "type": "function"
    },
    {
      "inputs": [
        {
          "name": "openingTime",
          "type": "uint256"
        },
        {
          "name": "closingTime",
          "type": "uint256"
        },
        {
          "name": "rate",
          "type": "uint256"
        },
        {
          "name": "wallet",
          "type": "address"
        },
        {
          "name": "cap",
          "type": "uint256"
        },
        {
          "name": "token",
          "type": "address"
        },
        {
          "name": "goal",
          "type": "uint256"
        }
      ],
      "payable": false,
      "stateMutability": "nonpayable",
      "type": "constructor"
    },
    {
      "payable": true,
      "stateMutability": "payable",
      "type": "fallback"
    },
    {
      "anonymous": false,
      "inputs": [],
      "name": "CrowdsaleFinalized",
      "type": "event"
    },
    {
      "anonymous": false,
      "inputs": [
        {
          "indexed": true,
          "name": "purchaser",
          "type": "address"
        },
        {
          "indexed": true,
          "name": "beneficiary",
          "type": "address"
        },
        {
          "indexed": false,
          "name": "value",
          "type": "uint256"
        },
        {
          "indexed": false,
          "name": "amount",
          "type": "uint256"
        }
      ],
      "name": "TokensPurchased",
      "type": "event"
    }
  ],
  "bytecode": "0x608060405234801561001057600080fd5b5060405160e080611cf18339810180604052810190808051906020019092919080519060200190929190805190602001909291908051906020019092919080519060200190929190805190602001909291908051906020019092919050505080878785888887600160008190555060008311151561008d57600080fd5b600073ffffffffffffffffffffffffffffffffffffffff168273ffffffffffffffffffffffffffffffffffffffff16141515156100c957600080fd5b600073ffffffffffffffffffffffffffffffffffffffff168173ffffffffffffffffffffffffffffffffffffffff161415151561010557600080fd5b8260038190555081600260006101000a81548173ffffffffffffffffffffffffffffffffffffffff021916908373ffffffffffffffffffffffffffffffffffffffff16021790555080600160006101000a81548173ffffffffffffffffffffffffffffffffffffffff021916908373ffffffffffffffffffffffffffffffffffffffff1602179055505050506000811115156101a057600080fd5b80600581905550504282101515156101b757600080fd5b81811115156101c557600080fd5b816006819055508060078190555050506000600860006101000a81548160ff0219169083151502179055506000811115156101ff57600080fd5b6102166102d4640100000000026401000000009004565b61021e6102fe565b808273ffffffffffffffffffffffffffffffffffffffff1673ffffffffffffffffffffffffffffffffffffffff168152602001915050604051809103906000f080158015610270573d6000803e3d6000fd5b50600a60006101000a81548173ffffffffffffffffffffffffffffffffffffffff021916908373ffffffffffffffffffffffffffffffffffffffff16021790555080600981905550508281111515156102c857600080fd5b5050505050505061030e565b6000600260009054906101000a900473ffffffffffffffffffffffffffffffffffffffff16905090565b604051610d2080610fd183390190565b610cb48061031d6000396000f3006080604052600436106100e6576000357c0100000000000000000000000000000000000000000000000000000000900463ffffffff1680631515bc2b146100f15780632c4e722e14610120578063355274ea1461014b57806340193883146101765780634042b66f146101a157806347535d7b146101cc5780634b6753bc146101fb5780634bb278f3146102265780634f9359451461023d578063521eb2731461026c5780637d3d6522146102c3578063b3f05b97146102f2578063b7a8807c14610321578063bffa55d51461034c578063ec8ac4d81461038f578063fc0c546a146103c5575b6100ef3361041c565b005b3480156100fd57600080fd5b50610106610512565b604051808215151515815260200191505060405180910390f35b34801561012c57600080fd5b5061013561051e565b6040518082815260200191505060405180910390f35b34801561015757600080fd5b50610160610528565b6040518082815260200191505060405180910390f35b34801561018257600080fd5b5061018b610532565b6040518082815260200191505060405180910390f35b3480156101ad57600080fd5b506101b661053c565b6040518082815260200191505060405180910390f35b3480156101d857600080fd5b506101e1610546565b604051808215151515815260200191505060405180910390f35b34801561020757600080fd5b50610210610561565b6040518082815260200191505060405180910390f35b34801561023257600080fd5b5061023b61056b565b005b34801561024957600080fd5b506102526105eb565b604051808215151515815260200191505060405180910390f35b34801561027857600080fd5b506102816105ff565b604051808273ffffffffffffffffffffffffffffffffffffffff1673ffffffffffffffffffffffffffffffffffffffff16815260200191505060405180910390f35b3480156102cf57600080fd5b506102d8610629565b604051808215151515815260200191505060405180910390f35b3480156102fe57600080fd5b5061030761063d565b604051808215151515815260200191505060405180910390f35b34801561032d57600080fd5b50610336610654565b6040518082815260200191505060405180910390f35b34801561035857600080fd5b5061038d600480360381019080803573ffffffffffffffffffffffffffffffffffffffff16906020019092919050505061065e565b005b6103c3600480360381019080803573ffffffffffffffffffffffffffffffffffffffff16906020019092919050505061041c565b005b3480156103d157600080fd5b506103da61075d565b604051808273ffffffffffffffffffffffffffffffffffffffff1673ffffffffffffffffffffffffffffffffffffffff16815260200191505060405180910390f35b60008060006001600080828254019250508190555060005490503492506104438484610787565b61044c836107a8565b9150610463836004546107c690919063ffffffff16565b60048190555061047384836107e7565b8373ffffffffffffffffffffffffffffffffffffffff163373ffffffffffffffffffffffffffffffffffffffff167f6faf93231a456e552dbc9961f58d9713ee4f2e69d15f1975b050ef0911053a7b8585604051808381526020018281526020019250505060405180910390a36104ea84846107f5565b6104f26107f9565b6104fc84846108d1565b6000548114151561050c57600080fd5b50505050565b60006007544211905090565b6000600354905090565b6000600554905090565b6000600954905090565b6000600454905090565b6000600654421015801561055c57506007544211155b905090565b6000600754905090565b600860009054906101000a900460ff1615151561058757600080fd5b61058f610512565b151561059a57600080fd5b6001600860006101000a81548160ff0219169083151502179055506105bd6108d5565b7f9270cc390c096600a1c17c44345a1ba689fafd99d97487b10cfccf86cf73183660405160405180910390a1565b60006005546105f861053c565b1015905090565b6000600260009054906101000a900473ffffffffffffffffffffffffffffffffffffffff16905090565b600060095461063661053c565b1015905090565b6000600860009054906101000a900460ff16905090565b6000600654905090565b61066661063d565b151561067157600080fd5b610679610629565b15151561068557600080fd5b600a60009054906101000a900473ffffffffffffffffffffffffffffffffffffffff1673ffffffffffffffffffffffffffffffffffffffff166351cff8d9826040518263ffffffff167c0100000000000000000000000000000000000000000000000000000000028152600401808273ffffffffffffffffffffffffffffffffffffffff1673ffffffffffffffffffffffffffffffffffffffff168152602001915050600060405180830381600087803b15801561074257600080fd5b505af1158015610756573d6000803e3d6000fd5b5050505050565b6000600160009054906101000a900473ffffffffffffffffffffffffffffffffffffffff16905090565b61078f610546565b151561079a57600080fd5b6107a48282610acc565b5050565b60006107bf60035483610b0490919063ffffffff16565b9050919050565b60008082840190508381101515156107dd57600080fd5b8091505092915050565b6107f18282610b42565b5050565b5050565b600a60009054906101000a900473ffffffffffffffffffffffffffffffffffffffff1673ffffffffffffffffffffffffffffffffffffffff1663f340fa0134336040518363ffffffff167c0100000000000000000000000000000000000000000000000000000000028152600401808273ffffffffffffffffffffffffffffffffffffffff1673ffffffffffffffffffffffffffffffffffffffff1681526020019150506000604051808303818588803b1580156108b657600080fd5b505af11580156108ca573d6000803e3d6000fd5b5050505050565b5050565b6108dd610629565b15610a2357600a60009054906101000a900473ffffffffffffffffffffffffffffffffffffffff1673ffffffffffffffffffffffffffffffffffffffff166343d726d66040518163ffffffff167c0100000000000000000000000000000000000000000000000000000000028152600401600060405180830381600087803b15801561096857600080fd5b505af115801561097c573d6000803e3d6000fd5b50505050600a60009054906101000a900473ffffffffffffffffffffffffffffffffffffffff1673ffffffffffffffffffffffffffffffffffffffff16639af6549a6040518163ffffffff167c0100000000000000000000000000000000000000000000000000000000028152600401600060405180830381600087803b158015610a0657600080fd5b505af1158015610a1a573d6000803e3d6000fd5b50505050610ac2565b600a60009054906101000a900473ffffffffffffffffffffffffffffffffffffffff1673ffffffffffffffffffffffffffffffffffffffff16638c52dc416040518163ffffffff167c0100000000000000000000000000000000000000000000000000000000028152600401600060405180830381600087803b158015610aa957600080fd5b505af1158015610abd573d6000803e3d6000fd5b505050505b610aca610c36565b565b610ad68282610c38565b600554610af382610ae561053c565b6107c690919063ffffffff16565b11151515610b0057600080fd5b5050565b6000806000841415610b195760009150610b3b565b8284029050828482811515610b2a57fe5b04141515610b3757600080fd5b8091505b5092915050565b610b4a61075d565b73ffffffffffffffffffffffffffffffffffffffff166340c10f1983836040518363ffffffff167c0100000000000000000000000000000000000000000000000000000000028152600401808373ffffffffffffffffffffffffffffffffffffffff1673ffffffffffffffffffffffffffffffffffffffff16815260200182815260200192505050602060405180830381600087803b158015610bec57600080fd5b505af1158015610c00573d6000803e3d6000fd5b505050506040513d6020811015610c1657600080fd5b81019080805190602001909291905050501515610c3257600080fd5b5050565b565b600073ffffffffffffffffffffffffffffffffffffffff168273ffffffffffffffffffffffffffffffffffffffff1614151515610c7457600080fd5b60008114151515610c8457600080fd5b50505600a165627a7a7230582075d2ad586da9e4577cc4be4346103ad43dc78e76f764135c62fad00648c8e00c0029608060405234801561001057600080fd5b50604051602080610d2083398101806040528101908080519060200190929190505050336000806101000a81548173ffffffffffffffffffffffffffffffffffffffff021916908373ffffffffffffffffffffffffffffffffffffffff1602179055507f4101e71e974f68df5e9730cc223280b41654676bbb052cdcc735c3337e64d2d96000809054906101000a900473ffffffffffffffffffffffffffffffffffffffff16604051808273ffffffffffffffffffffffffffffffffffffffff1673ffffffffffffffffffffffffffffffffffffffff16815260200191505060405180910390a1600073ffffffffffffffffffffffffffffffffffffffff168173ffffffffffffffffffffffffffffffffffffffff161415151561013357600080fd5b80600260016101000a81548173ffffffffffffffffffffffffffffffffffffffff021916908373ffffffffffffffffffffffffffffffffffffffff1602179055506000600260006101000a81548160ff0219169083600281111561019357fe5b021790555050610b78806101a86000396000f3006080604052600436106100af576000357c0100000000000000000000000000000000000000000000000000000000900463ffffffff1680632348238c146100b457806338af3eed146100f757806343d726d61461014e57806351cff8d914610165578063685ca194146101a85780638c52dc41146102035780639af6549a1461021a578063c19d93fb14610231578063c6dbdf611461026a578063e3a9db1a146102c1578063f340fa0114610318575b600080fd5b3480156100c057600080fd5b506100f5600480360381019080803573ffffffffffffffffffffffffffffffffffffffff16906020019092919050505061034e565b005b34801561010357600080fd5b5061010c6104ac565b604051808273ffffffffffffffffffffffffffffffffffffffff1673ffffffffffffffffffffffffffffffffffffffff16815260200191505060405180910390f35b34801561015a57600080fd5b506101636104d6565b005b34801561017157600080fd5b506101a6600480360381019080803573ffffffffffffffffffffffffffffffffffffffff1690602001909291905050506105b6565b005b3480156101b457600080fd5b506101e9600480360381019080803573ffffffffffffffffffffffffffffffffffffffff1690602001909291905050506105d6565b604051808215151515815260200191505060405180910390f35b34801561020f57600080fd5b50610218610608565b005b34801561022657600080fd5b5061022f6106e9565b005b34801561023d57600080fd5b5061024661079e565b6040518082600281111561025657fe5b60ff16815260200191505060405180910390f35b34801561027657600080fd5b5061027f6107b5565b604051808273ffffffffffffffffffffffffffffffffffffffff1673ffffffffffffffffffffffffffffffffffffffff16815260200191505060405180910390f35b3480156102cd57600080fd5b50610302600480360381019080803573ffffffffffffffffffffffffffffffffffffffff1690602001909291905050506107de565b6040518082815260200191505060405180910390f35b61034c600480360381019080803573ffffffffffffffffffffffffffffffffffffffff169060200190929190505050610827565b005b6000809054906101000a900473ffffffffffffffffffffffffffffffffffffffff1673ffffffffffffffffffffffffffffffffffffffff163373ffffffffffffffffffffffffffffffffffffffff161415156103a957600080fd5b600073ffffffffffffffffffffffffffffffffffffffff168173ffffffffffffffffffffffffffffffffffffffff16141515156103e557600080fd5b806000806101000a81548173ffffffffffffffffffffffffffffffffffffffff021916908373ffffffffffffffffffffffffffffffffffffffff1602179055507f4101e71e974f68df5e9730cc223280b41654676bbb052cdcc735c3337e64d2d96000809054906101000a900473ffffffffffffffffffffffffffffffffffffffff16604051808273ffffffffffffffffffffffffffffffffffffffff1673ffffffffffffffffffffffffffffffffffffffff16815260200191505060405180910390a150565b6000600260019054906101000a900473ffffffffffffffffffffffffffffffffffffffff16905090565b6000809054906101000a900473ffffffffffffffffffffffffffffffffffffffff1673ffffffffffffffffffffffffffffffffffffffff163373ffffffffffffffffffffffffffffffffffffffff1614151561053157600080fd5b6000600281111561053e57fe5b600260009054906101000a900460ff16600281111561055957fe5b14151561056557600080fd5b60028060006101000a81548160ff0219169083600281111561058357fe5b02179055507f088672c3a6e342f7cd94a65ba63b79df24a8973927b4d05d803c44bbf787d12f60405160405180910390a1565b6105bf816105d6565b15156105ca57600080fd5b6105d381610867565b50565b6000600160028111156105e557fe5b600260009054906101000a900460ff16600281111561060057fe5b149050919050565b6000809054906101000a900473ffffffffffffffffffffffffffffffffffffffff1673ffffffffffffffffffffffffffffffffffffffff163373ffffffffffffffffffffffffffffffffffffffff1614151561066357600080fd5b6000600281111561067057fe5b600260009054906101000a900460ff16600281111561068b57fe5b14151561069757600080fd5b6001600260006101000a81548160ff021916908360028111156106b657fe5b02179055507f599d8e5a83cffb867d051598c4d70e805d59802d8081c1c7d6dffc5b6aca2b8960405160405180910390a1565b6002808111156106f557fe5b600260009054906101000a900460ff16600281111561071057fe5b14151561071c57600080fd5b600260019054906101000a900473ffffffffffffffffffffffffffffffffffffffff1673ffffffffffffffffffffffffffffffffffffffff166108fc3073ffffffffffffffffffffffffffffffffffffffff16319081150290604051600060405180830381858888f1935050505015801561079b573d6000803e3d6000fd5b50565b6000600260009054906101000a900460ff16905090565b60008060009054906101000a900473ffffffffffffffffffffffffffffffffffffffff16905090565b6000600160008373ffffffffffffffffffffffffffffffffffffffff1673ffffffffffffffffffffffffffffffffffffffff168152602001908152602001600020549050919050565b6000600281111561083457fe5b600260009054906101000a900460ff16600281111561084f57fe5b14151561085b57600080fd5b610864816109e4565b50565b60008060009054906101000a900473ffffffffffffffffffffffffffffffffffffffff1673ffffffffffffffffffffffffffffffffffffffff163373ffffffffffffffffffffffffffffffffffffffff161415156108c457600080fd5b600160008373ffffffffffffffffffffffffffffffffffffffff1673ffffffffffffffffffffffffffffffffffffffff1681526020019081526020016000205490506000600160008473ffffffffffffffffffffffffffffffffffffffff1673ffffffffffffffffffffffffffffffffffffffff168152602001908152602001600020819055508173ffffffffffffffffffffffffffffffffffffffff166108fc829081150290604051600060405180830381858888f19350505050158015610991573d6000803e3d6000fd5b508173ffffffffffffffffffffffffffffffffffffffff167f7084f5476618d8e60b11ef0d7d3f06914655adb8793e28ff7f018d4c76d505d5826040518082815260200191505060405180910390a25050565b60008060009054906101000a900473ffffffffffffffffffffffffffffffffffffffff1673ffffffffffffffffffffffffffffffffffffffff163373ffffffffffffffffffffffffffffffffffffffff16141515610a4157600080fd5b349050610a9681600160008573ffffffffffffffffffffffffffffffffffffffff1673ffffffffffffffffffffffffffffffffffffffff16815260200190815260200160002054610b2b90919063ffffffff16565b600160008473ffffffffffffffffffffffffffffffffffffffff1673ffffffffffffffffffffffffffffffffffffffff168152602001908152602001600020819055508173ffffffffffffffffffffffffffffffffffffffff167f2da466a7b24304f47e87fa2e1e5a81b9831ce54fec19055ce277ca2f39ba42c4826040518082815260200191505060405180910390a25050565b6000808284019050838110151515610b4257600080fd5b80915050929150505600a165627a7a723058203088ceefedc20f087972ab1d9b13020d99e779e32ea6a2214c972e3d15edffe90029",
  "source": "pragma solidity ^0.4.24;\n\nimport \"../node_modules/openzeppelin-solidity/contracts/crowdsale/validation/CappedCrowdsale.sol\";\nimport \"../node_modules/openzeppelin-solidity/contracts/crowdsale/distribution/RefundableCrowdsale.sol\";\nimport \"../node_modules/openzeppelin-solidity/contracts/crowdsale/emission/MintedCrowdsale.sol\";\nimport \"../node_modules/openzeppelin-solidity/contracts/token/ERC20/ERC20Mintable.sol\";\nimport \"../node_modules/openzeppelin-solidity/contracts/token/ERC20/ERC20Detailed.sol\";\n\n/**\n * @title SampleCrowdsaleToken\n * @dev Very simple ERC20 Token that can be minted.\n * It is meant to be used in a crowdsale contract.\n */\ncontract SampleCrowdsaleToken is ERC20Mintable, ERC20Detailed {\n    constructor() public ERC20Detailed(\"Sample Crowdsale Token\", \"SCT\", 18) {}\n}\n\n/**\n * @title SampleCrowdsale\n * @dev This is an example of a fully fledged crowdsale.\n * The way to add new features to a base crowdsale is by multiple inheritance.\n * In this example we are providing following extensions:\n * CappedCrowdsale - sets a max boundary for raised funds\n * RefundableCrowdsale - set a min goal to be reached and returns funds if it's not met\n * MintedCrowdsale - assumes the token can be minted by the crowdsale, which does so\n * when receiving purchases.\n *\n * After adding multiple features it's good practice to run integration tests\n * to ensure that subcontracts works together as intended.\n */\n// XXX There doesn't seem to be a way to split this line that keeps solium\n// happy. See:\n// https://github.com/duaraghav8/Solium/issues/205\n// --elopio - 2018-05-10\n// solium-disable-next-line max-len\ncontract SampleCrowdsale is CappedCrowdsale, RefundableCrowdsale, MintedCrowdsale {\n\n    constructor(\n        uint256 openingTime,\n        uint256 closingTime,\n        uint256 rate,\n        address wallet,\n        uint256 cap,\n        ERC20Mintable token,\n        uint256 goal\n    )\n    public\n    Crowdsale(rate, wallet, token)\n    CappedCrowdsale(cap)\n    TimedCrowdsale(openingTime, closingTime)\n    RefundableCrowdsale(goal)\n    {\n        //As goal needs to be met for a successful crowdsale\n        //the value needs to less or equal than a cap which is limit for accepted funds\n        require(goal <= cap);\n    }\n}",
  "sourcePath": "/Users/toshiz/Develop/ERC20/contract/contracts/MyCrowdsale.sol",
  "compiler": {
    "name": "solc",
    "version": "0.4.24+commit.e67f0147.Emscripten.clang"
  },
  "schemaVersion": "2.0.1",
  "updatedAt": "2018-11-18T00:15:28.317Z"
}